{
  "contractName": "SDV",
  "abi": [
    {
      "inputs": [],
      "payable": false,
      "stateMutability": "nonpayable",
      "type": "constructor"
    },
    {
      "constant": true,
      "inputs": [],
      "name": "accounOwner",
      "outputs": [
        {
          "internalType": "address",
          "name": "",
          "type": "address"
        }
      ],
      "payable": false,
      "stateMutability": "view",
      "type": "function"
    },
    {
      "constant": true,
      "inputs": [
        {
          "internalType": "address",
          "name": "",
          "type": "address"
        },
        {
          "internalType": "string",
          "name": "",
          "type": "string"
        }
      ],
      "name": "documents",
      "outputs": [
        {
          "internalType": "string",
          "name": "name",
          "type": "string"
        },
        {
          "internalType": "address",
          "name": "issuedby",
          "type": "address"
        },
        {
          "internalType": "enum SDV.DocType",
          "name": "docType",
          "type": "uint8"
        },
        {
          "internalType": "enum SDV.State",
          "name": "state",
          "type": "uint8"
        }
      ],
      "payable": false,
      "stateMutability": "view",
      "type": "function"
    },
    {
      "constant": true,
      "inputs": [
        {
          "internalType": "address",
          "name": "",
          "type": "address"
        },
        {
          "internalType": "address",
          "name": "",
          "type": "address"
        }
      ],
      "name": "kycRequests",
      "outputs": [
        {
          "internalType": "enum SDV.State",
          "name": "state",
          "type": "uint8"
        },
        {
          "internalType": "bool",
          "name": "canViewEducation",
          "type": "bool"
        },
        {
          "internalType": "bool",
          "name": "canViewEmployer",
          "type": "bool"
        },
        {
          "internalType": "bool",
          "name": "canViewAddress",
          "type": "bool"
        },
        {
          "internalType": "bool",
          "name": "canViewReferences",
          "type": "bool"
        },
        {
          "internalType": "bool",
          "name": "canViewContactDetails",
          "type": "bool"
        },
        {
          "internalType": "bool",
          "name": "canViewAadhar",
          "type": "bool"
        },
        {
          "internalType": "bool",
          "name": "canViewPan",
          "type": "bool"
        },
        {
          "internalType": "bool",
          "name": "canViewDL",
          "type": "bool"
        }
      ],
      "payable": false,
      "stateMutability": "view",
      "type": "function"
    },
    {
      "constant": true,
      "inputs": [
        {
          "internalType": "address",
          "name": "",
          "type": "address"
        }
      ],
      "name": "organisations",
      "outputs": [
        {
          "internalType": "string",
          "name": "oname",
          "type": "string"
        },
        {
          "internalType": "enum SDV.OrgType",
          "name": "otype",
          "type": "uint8"
        },
        {
          "internalType": "enum SDV.State",
          "name": "state",
          "type": "uint8"
        }
      ],
      "payable": false,
      "stateMutability": "view",
      "type": "function"
    },
    {
      "constant": true,
      "inputs": [
        {
          "internalType": "address",
          "name": "",
          "type": "address"
        }
      ],
      "name": "userDocuments",
      "outputs": [
        {
          "internalType": "string",
          "name": "",
          "type": "string"
        }
      ],
      "payable": false,
      "stateMutability": "view",
      "type": "function"
    },
    {
      "constant": true,
      "inputs": [
        {
          "internalType": "address",
          "name": "",
          "type": "address"
        }
      ],
      "name": "users",
      "outputs": [
        {
          "internalType": "string",
          "name": "uname",
          "type": "string"
        },
        {
          "internalType": "enum SDV.State",
          "name": "state",
          "type": "uint8"
        },
        {
          "internalType": "string",
          "name": "permanentAddress",
          "type": "string"
        },
        {
          "internalType": "string",
          "name": "currentAddress",
          "type": "string"
        },
        {
          "internalType": "string",
          "name": "email",
          "type": "string"
        },
        {
          "internalType": "string",
          "name": "phone",
          "type": "string"
        },
        {
          "internalType": "string",
          "name": "refEmail",
          "type": "string"
        },
        {
          "internalType": "address",
          "name": "createdBy",
          "type": "address"
        }
      ],
      "payable": false,
      "stateMutability": "view",
      "type": "function"
    },
    {
      "constant": false,
      "inputs": [
        {
          "internalType": "address",
          "name": "_userAddress",
          "type": "address"
        },
        {
          "internalType": "string",
          "name": "_name",
          "type": "string"
        },
        {
          "internalType": "string",
          "name": "_pAddress",
          "type": "string"
        },
        {
          "internalType": "string",
          "name": "_cAddress",
          "type": "string"
        },
        {
          "internalType": "string",
          "name": "_email",
          "type": "string"
        },
        {
          "internalType": "string",
          "name": "_phone",
          "type": "string"
        },
        {
          "internalType": "string",
          "name": "_refEmail",
          "type": "string"
        }
      ],
      "name": "addNewCustomer",
      "outputs": [
        {
          "internalType": "bool",
          "name": "success",
          "type": "bool"
        }
      ],
      "payable": false,
      "stateMutability": "nonpayable",
      "type": "function"
    },
    {
      "constant": false,
      "inputs": [
        {
          "internalType": "address",
          "name": "_oAddress",
          "type": "address"
        },
        {
          "internalType": "string",
          "name": "_name",
          "type": "string"
        },
        {
          "internalType": "enum SDV.OrgType",
          "name": "_type",
          "type": "uint8"
        }
      ],
      "name": "addNewOrg",
      "outputs": [
        {
          "internalType": "bool",
          "name": "success",
          "type": "bool"
        }
      ],
      "payable": false,
      "stateMutability": "nonpayable",
      "type": "function"
    },
    {
      "constant": false,
      "inputs": [
        {
          "internalType": "address",
          "name": "_uaddress",
          "type": "address"
        }
      ],
      "name": "verifyCustomer",
      "outputs": [
        {
          "internalType": "bool",
          "name": "success",
          "type": "bool"
        }
      ],
      "payable": false,
      "stateMutability": "nonpayable",
      "type": "function"
    },
    {
      "constant": false,
      "inputs": [
        {
          "internalType": "address",
          "name": "_uaddress",
          "type": "address"
        },
        {
          "internalType": "string",
          "name": "_docId",
          "type": "string"
        }
      ],
      "name": "verifyDocument",
      "outputs": [
        {
          "internalType": "bool",
          "name": "success",
          "type": "bool"
        }
      ],
      "payable": false,
      "stateMutability": "nonpayable",
      "type": "function"
    },
    {
      "constant": false,
      "inputs": [
        {
          "internalType": "address",
          "name": "_uaddress",
          "type": "address"
        },
        {
          "internalType": "string",
          "name": "_docId",
          "type": "string"
        }
      ],
      "name": "rejectDocument",
      "outputs": [
        {
          "internalType": "bool",
          "name": "success",
          "type": "bool"
        }
      ],
      "payable": false,
      "stateMutability": "nonpayable",
      "type": "function"
    },
    {
      "constant": false,
      "inputs": [
        {
          "internalType": "address",
          "name": "_uAddress",
          "type": "address"
        }
      ],
      "name": "sendBgvRequest",
      "outputs": [
        {
          "internalType": "bool",
          "name": "success",
          "type": "bool"
        }
      ],
      "payable": false,
      "stateMutability": "nonpayable",
      "type": "function"
    },
    {
      "constant": true,
      "inputs": [
        {
          "internalType": "address",
          "name": "_uAddress",
          "type": "address"
        }
      ],
      "name": "checkBgvStatus",
      "outputs": [
        {
          "internalType": "enum SDV.State",
          "name": "",
          "type": "uint8"
        }
      ],
      "payable": false,
      "stateMutability": "view",
      "type": "function"
    },
    {
      "constant": true,
      "inputs": [
        {
          "internalType": "address",
          "name": "_userAddress",
          "type": "address"
        }
      ],
      "name": "getUserBasicDetails",
      "outputs": [
        {
          "internalType": "string",
          "name": "",
          "type": "string"
        },
        {
          "internalType": "enum SDV.State",
          "name": "",
          "type": "uint8"
        },
        {
          "internalType": "string",
          "name": "",
          "type": "string"
        },
        {
          "internalType": "string",
          "name": "",
          "type": "string"
        },
        {
          "internalType": "string",
          "name": "",
          "type": "string"
        },
        {
          "internalType": "string",
          "name": "",
          "type": "string"
        },
        {
          "internalType": "string",
          "name": "",
          "type": "string"
        }
      ],
      "payable": false,
      "stateMutability": "view",
      "type": "function"
    },
    {
      "constant": true,
      "inputs": [
        {
          "internalType": "address",
          "name": "_userAddress",
          "type": "address"
        },
        {
          "internalType": "string",
          "name": "docId",
          "type": "string"
        }
      ],
      "name": "getUserDocument",
      "outputs": [
        {
          "internalType": "string",
          "name": "",
          "type": "string"
        },
        {
          "internalType": "enum SDV.DocType",
          "name": "",
          "type": "uint8"
        },
        {
          "internalType": "enum SDV.State",
          "name": "",
          "type": "uint8"
        }
      ],
      "payable": false,
      "stateMutability": "view",
      "type": "function"
    },
    {
      "constant": true,
      "inputs": [
        {
          "internalType": "string",
          "name": "docId",
          "type": "string"
        }
      ],
      "name": "getMyDocument",
      "outputs": [
        {
          "internalType": "string",
          "name": "",
          "type": "string"
        },
        {
          "internalType": "enum SDV.DocType",
          "name": "",
          "type": "uint8"
        },
        {
          "internalType": "enum SDV.State",
          "name": "",
          "type": "uint8"
        }
      ],
      "payable": false,
      "stateMutability": "view",
      "type": "function"
    },
    {
      "constant": true,
      "inputs": [],
      "name": "getMyBasicDetails",
      "outputs": [
        {
          "internalType": "string",
          "name": "",
          "type": "string"
        },
        {
          "internalType": "enum SDV.State",
          "name": "",
          "type": "uint8"
        },
        {
          "internalType": "string",
          "name": "",
          "type": "string"
        },
        {
          "internalType": "string",
          "name": "",
          "type": "string"
        },
        {
          "internalType": "string",
          "name": "",
          "type": "string"
        },
        {
          "internalType": "string",
          "name": "",
          "type": "string"
        },
        {
          "internalType": "string",
          "name": "",
          "type": "string"
        }
      ],
      "payable": false,
      "stateMutability": "view",
      "type": "function"
    },
    {
      "constant": false,
      "inputs": [
        {
          "internalType": "address",
          "name": "_oAddress",
          "type": "address"
        }
      ],
      "name": "InitiateVerificationRequest",
      "outputs": [
        {
          "internalType": "bool",
          "name": "success",
          "type": "bool"
        }
      ],
      "payable": false,
      "stateMutability": "nonpayable",
      "type": "function"
    },
    {
      "constant": false,
      "inputs": [
        {
          "internalType": "string",
          "name": "_name",
          "type": "string"
        },
        {
          "internalType": "string",
          "name": "_pAddress",
          "type": "string"
        },
        {
          "internalType": "string",
          "name": "_cAddress",
          "type": "string"
        },
        {
          "internalType": "string",
          "name": "_phone",
          "type": "string"
        },
        {
          "internalType": "string",
          "name": "_refEmail",
          "type": "string"
        }
      ],
      "name": "updateCustomer",
      "outputs": [
        {
          "internalType": "bool",
          "name": "success",
          "type": "bool"
        }
      ],
      "payable": false,
      "stateMutability": "nonpayable",
      "type": "function"
    },
    {
      "constant": false,
      "inputs": [
        {
          "internalType": "string",
          "name": "_docName",
          "type": "string"
        },
        {
          "internalType": "address",
          "name": "_IssuedBy",
          "type": "address"
        },
        {
          "internalType": "enum SDV.DocType",
          "name": "_doctype",
          "type": "uint8"
        },
        {
          "internalType": "string",
          "name": "_docHash",
          "type": "string"
        }
      ],
      "name": "addDocument",
      "outputs": [
        {
          "internalType": "bool",
          "name": "success",
          "type": "bool"
        }
      ],
      "payable": false,
      "stateMutability": "nonpayable",
      "type": "function"
    },
    {
      "constant": false,
      "inputs": [
        {
          "internalType": "string",
          "name": "_docHash",
          "type": "string"
        }
      ],
      "name": "removeDocument",
      "outputs": [
        {
          "internalType": "bool",
          "name": "success",
          "type": "bool"
        }
      ],
      "payable": false,
      "stateMutability": "nonpayable",
      "type": "function"
    },
    {
      "constant": false,
      "inputs": [
        {
          "internalType": "address",
          "name": "_oAddress",
          "type": "address"
        },
        {
          "internalType": "bool",
          "name": "_canViewEducation",
          "type": "bool"
        },
        {
          "internalType": "bool",
          "name": "_canViewEmployer",
          "type": "bool"
        },
        {
          "internalType": "bool",
          "name": "_canViewAddress",
          "type": "bool"
        },
        {
          "internalType": "bool",
          "name": "_canViewReferences",
          "type": "bool"
        },
        {
          "internalType": "bool",
          "name": "_canViewContactDetails",
          "type": "bool"
        },
        {
          "internalType": "bool",
          "name": "_canViewAadhar",
          "type": "bool"
        },
        {
          "internalType": "bool",
          "name": "_canViewPan",
          "type": "bool"
        },
        {
          "internalType": "bool",
          "name": "_canViewDL",
          "type": "bool"
        }
      ],
      "name": "approveBgvRequest",
      "outputs": [
        {
          "internalType": "bool",
          "name": "success",
          "type": "bool"
        }
      ],
      "payable": false,
      "stateMutability": "nonpayable",
      "type": "function"
    },
    {
      "constant": false,
      "inputs": [
        {
          "internalType": "address",
          "name": "_oAddress",
          "type": "address"
        }
      ],
      "name": "rejectBgvRequest",
      "outputs": [
        {
          "internalType": "bool",
          "name": "success",
          "type": "bool"
        }
      ],
      "payable": false,
      "stateMutability": "nonpayable",
      "type": "function"
    }
  ],
  "bytecode": "0x608060405234801561001057600080fd5b50336000806101000a81548173ffffffffffffffffffffffffffffffffffffffff021916908373ffffffffffffffffffffffffffffffffffffffff16021790555061573180620000616000396000f3fe608060405234801561001057600080fd5b506004361061014d5760003560e01c806359fe7ed9116100c3578063b5cd4f481161007c578063b5cd4f4814610478578063c4346694146104a8578063daa6b8f1146104e0578063dde51f6d14610510578063e7270e5c14610540578063f7e77e2d146105725761014d565b806359fe7ed914610348578063641ee9d51461037e5780639258b3d4146103ae57806395fd2db9146103de5780639e834fd914610411578063a87430ba146104415761014d565b80632e6d1703116101155780632e6d17031461023657806332a2a2cc14610254578063360d8ebf14610284578063380765a7146102b657806343e4f982146102e857806347756d03146103185761014d565b80630948e61f146101525780631aa6b16b146101825780631b2fcdcd146101a65780631f6423ce146101d65780632062838814610206575b600080fd5b61016c600480360361016791908101906149bc565b6105a2565b60405161017991906150d4565b60405180910390f35b61018a6106d9565b60405161019d97969594939291906151f7565b60405180910390f35b6101c060048036036101bb9190810190614a10565b610c81565b6040516101cd91906150d4565b60405180910390f35b6101f060048036036101eb91908101906148a2565b610eaa565b6040516101fd91906150d4565b60405180910390f35b610220600480360361021b919081019061483d565b6115a7565b60405161022d91906150d4565b60405180910390f35b61023e611912565b60405161024b91906150b9565b60405180910390f35b61026e6004803603610269919081019061483d565b611937565b60405161027b91906150ef565b60405180910390f35b61029e6004803603610299919081019061483d565b611a78565b6040516102ad939291906152dc565b60405180910390f35b6102d060048036036102cb9190810190614ba5565b611b54565b6040516102df939291906151b9565b60405180910390f35b61030260048036036102fd919081019061483d565b611de6565b60405161030f91906150d4565b60405180910390f35b610332600480360361032d9190810190614c79565b612022565b60405161033f91906150d4565b60405180910390f35b610362600480360361035d919081019061483d565b6122f2565b60405161037597969594939291906151f7565b60405180910390f35b610398600480360361039391908101906149bc565b612baf565b6040516103a591906150d4565b60405180910390f35b6103c860048036036103c3919081019061483d565b612ce6565b6040516103d59190615197565b60405180910390f35b6103f860048036036103f39190810190614968565b612d96565b6040516104089493929190615290565b60405180910390f35b61042b6004803603610426919081019061483d565b612ebb565b60405161043891906150d4565b60405180910390f35b61045b6004803603610456919081019061483d565b61317e565b60405161046f98979695949392919061531a565b60405180910390f35b610492600480360361048d9190810190614be6565b613583565b60405161049f91906150d4565b60405180910390f35b6104c260048036036104bd9190810190614866565b61379e565b6040516104d79998979695949392919061510a565b60405180910390f35b6104fa60048036036104f5919081019061483d565b61386e565b60405161050791906150d4565b60405180910390f35b61052a60048036036105259190810190614ba5565b613988565b60405161053791906150d4565b60405180910390f35b61055a600480360361055591908101906149bc565b613afb565b604051610569939291906151b9565b60405180910390f35b61058c60048036036105879190810190614a77565b6142a3565b60405161059991906150d4565b60405180910390f35b600033600060038111156105b257fe5b600260008373ffffffffffffffffffffffffffffffffffffffff1673ffffffffffffffffffffffffffffffffffffffff16815260200190815260200160002060010160019054906101000a900460ff16600381111561060d57fe5b141561064e576040517f08c379a0000000000000000000000000000000000000000000000000000000008152600401610645906154a2565b60405180910390fd5b6003600460008673ffffffffffffffffffffffffffffffffffffffff1673ffffffffffffffffffffffffffffffffffffffff1681526020019081526020016000208460405161069d91906150a2565b908152602001604051809103902060010160156101000a81548160ff021916908360038111156106c957fe5b0217905550600191505092915050565b60606000606080606080606033600060038111156106f357fe5b600160008373ffffffffffffffffffffffffffffffffffffffff1673ffffffffffffffffffffffffffffffffffffffff16815260200190815260200160002060010160009054906101000a900460ff16600381111561074e57fe5b141561078f576040517f08c379a0000000000000000000000000000000000000000000000000000000008152600401610786906153c2565b60405180910390fd5b61079761451a565b600160003373ffffffffffffffffffffffffffffffffffffffff1673ffffffffffffffffffffffffffffffffffffffff16815260200190815260200160002060405180610100016040529081600082018054600181600116156101000203166002900480601f01602080910402602001604051908101604052809291908181526020018280546001816001161561010002031660029004801561087b5780601f106108505761010080835404028352916020019161087b565b820191906000526020600020905b81548152906001019060200180831161085e57829003601f168201915b505050505081526020016001820160009054906101000a900460ff1660038111156108a257fe5b60038111156108ad57fe5b8152602001600282018054600181600116156101000203166002900480601f01602080910402602001604051908101604052809291908181526020018280546001816001161561010002031660029004801561094a5780601f1061091f5761010080835404028352916020019161094a565b820191906000526020600020905b81548152906001019060200180831161092d57829003601f168201915b50505050508152602001600382018054600181600116156101000203166002900480601f0160208091040260200160405190810160405280929190818152602001828054600181600116156101000203166002900480156109ec5780601f106109c1576101008083540402835291602001916109ec565b820191906000526020600020905b8154815290600101906020018083116109cf57829003601f168201915b50505050508152602001600482018054600181600116156101000203166002900480601f016020809104026020016040519081016040528092919081815260200182805460018160011615610100020316600290048015610a8e5780601f10610a6357610100808354040283529160200191610a8e565b820191906000526020600020905b815481529060010190602001808311610a7157829003601f168201915b50505050508152602001600582018054600181600116156101000203166002900480601f016020809104026020016040519081016040528092919081815260200182805460018160011615610100020316600290048015610b305780601f10610b0557610100808354040283529160200191610b30565b820191906000526020600020905b815481529060010190602001808311610b1357829003601f168201915b50505050508152602001600682018054600181600116156101000203166002900480601f016020809104026020016040519081016040528092919081815260200182805460018160011615610100020316600290048015610bd25780601f10610ba757610100808354040283529160200191610bd2565b820191906000526020600020905b815481529060010190602001808311610bb557829003601f168201915b505050505081526020016007820160009054906101000a900473ffffffffffffffffffffffffffffffffffffffff1673ffffffffffffffffffffffffffffffffffffffff1673ffffffffffffffffffffffffffffffffffffffff16815250509050806000015181602001518260400151836060015184608001518560a001518660c001518696508494508393508292508191508090509850985098509850985098509850505090919293949596565b60003373ffffffffffffffffffffffffffffffffffffffff166000809054906101000a900473ffffffffffffffffffffffffffffffffffffffff1673ffffffffffffffffffffffffffffffffffffffff1614610d12576040517f08c379a0000000000000000000000000000000000000000000000000000000008152600401610d0990615462565b60405180910390fd5b8360006003811115610d2057fe5b600260008373ffffffffffffffffffffffffffffffffffffffff1673ffffffffffffffffffffffffffffffffffffffff16815260200190815260200160002060010160019054906101000a900460ff166003811115610d7b57fe5b14610dbb576040517f08c379a0000000000000000000000000000000000000000000000000000000008152600401610db290615402565b60405180910390fd5b6040518060600160405280858152602001846006811115610dd857fe5b815260200160026003811115610dea57fe5b815250600260008773ffffffffffffffffffffffffffffffffffffffff1673ffffffffffffffffffffffffffffffffffffffff1681526020019081526020016000206000820151816000019080519060200190610e48929190614580565b5060208201518160010160006101000a81548160ff02191690836006811115610e6d57fe5b021790555060408201518160010160016101000a81548160ff02191690836003811115610e9657fe5b021790555090505060019150509392505050565b60003360006003811115610eba57fe5b600160008373ffffffffffffffffffffffffffffffffffffffff1673ffffffffffffffffffffffffffffffffffffffff16815260200190815260200160002060010160009054906101000a900460ff166003811115610f1557fe5b1415610f56576040517f08c379a0000000000000000000000000000000000000000000000000000000008152600401610f4d906153c2565b60405180910390fd5b60006003811115610f6357fe5b600360003373ffffffffffffffffffffffffffffffffffffffff1673ffffffffffffffffffffffffffffffffffffffff16815260200190815260200160002060008d73ffffffffffffffffffffffffffffffffffffffff1673ffffffffffffffffffffffffffffffffffffffff16815260200190815260200160002060000160009054906101000a900460ff166003811115610ffb57fe5b141561103c576040517f08c379a000000000000000000000000000000000000000000000000000000000815260040161103390615422565b60405180910390fd5b6002600360003373ffffffffffffffffffffffffffffffffffffffff1673ffffffffffffffffffffffffffffffffffffffff16815260200190815260200160002060008d73ffffffffffffffffffffffffffffffffffffffff1673ffffffffffffffffffffffffffffffffffffffff16815260200190815260200160002060000160006101000a81548160ff021916908360038111156110d857fe5b021790555089600360003373ffffffffffffffffffffffffffffffffffffffff1673ffffffffffffffffffffffffffffffffffffffff16815260200190815260200160002060008d73ffffffffffffffffffffffffffffffffffffffff1673ffffffffffffffffffffffffffffffffffffffff16815260200190815260200160002060000160016101000a81548160ff02191690831515021790555088600360003373ffffffffffffffffffffffffffffffffffffffff1673ffffffffffffffffffffffffffffffffffffffff16815260200190815260200160002060008d73ffffffffffffffffffffffffffffffffffffffff1673ffffffffffffffffffffffffffffffffffffffff16815260200190815260200160002060000160026101000a81548160ff02191690831515021790555087600360003373ffffffffffffffffffffffffffffffffffffffff1673ffffffffffffffffffffffffffffffffffffffff16815260200190815260200160002060008d73ffffffffffffffffffffffffffffffffffffffff1673ffffffffffffffffffffffffffffffffffffffff16815260200190815260200160002060000160036101000a81548160ff02191690831515021790555086600360003373ffffffffffffffffffffffffffffffffffffffff1673ffffffffffffffffffffffffffffffffffffffff16815260200190815260200160002060008d73ffffffffffffffffffffffffffffffffffffffff1673ffffffffffffffffffffffffffffffffffffffff16815260200190815260200160002060000160046101000a81548160ff02191690831515021790555085600360003373ffffffffffffffffffffffffffffffffffffffff1673ffffffffffffffffffffffffffffffffffffffff16815260200190815260200160002060008d73ffffffffffffffffffffffffffffffffffffffff1673ffffffffffffffffffffffffffffffffffffffff16815260200190815260200160002060000160056101000a81548160ff02191690831515021790555084600360003373ffffffffffffffffffffffffffffffffffffffff1673ffffffffffffffffffffffffffffffffffffffff16815260200190815260200160002060008d73ffffffffffffffffffffffffffffffffffffffff1673ffffffffffffffffffffffffffffffffffffffff16815260200190815260200160002060000160066101000a81548160ff02191690831515021790555083600360003373ffffffffffffffffffffffffffffffffffffffff1673ffffffffffffffffffffffffffffffffffffffff16815260200190815260200160002060008d73ffffffffffffffffffffffffffffffffffffffff1673ffffffffffffffffffffffffffffffffffffffff16815260200190815260200160002060000160076101000a81548160ff02191690831515021790555082600360003373ffffffffffffffffffffffffffffffffffffffff1673ffffffffffffffffffffffffffffffffffffffff16815260200190815260200160002060008d73ffffffffffffffffffffffffffffffffffffffff1673ffffffffffffffffffffffffffffffffffffffff16815260200190815260200160002060000160086101000a81548160ff02191690831515021790555060019150509998505050505050505050565b600033600060038111156115b757fe5b600260008373ffffffffffffffffffffffffffffffffffffffff1673ffffffffffffffffffffffffffffffffffffffff16815260200190815260200160002060010160019054906101000a900460ff16600381111561161257fe5b1415611653576040517f08c379a000000000000000000000000000000000000000000000000000000000815260040161164a906154a2565b60405180910390fd5b6002600381111561166057fe5b600160008573ffffffffffffffffffffffffffffffffffffffff1673ffffffffffffffffffffffffffffffffffffffff16815260200190815260200160002060010160009054906101000a900460ff1660038111156116bb57fe5b146116fb576040517f08c379a00000000000000000000000000000000000000000000000000000000081526004016116f290615442565b60405180910390fd5b6040518061012001604052806001600381111561171457fe5b815260200160001515815260200160001515815260200160001515815260200160001515815260200160001515815260200160001515815260200160001515815260200160001515815250600360008573ffffffffffffffffffffffffffffffffffffffff1673ffffffffffffffffffffffffffffffffffffffff16815260200190815260200160002060003373ffffffffffffffffffffffffffffffffffffffff1673ffffffffffffffffffffffffffffffffffffffff16815260200190815260200160002060008201518160000160006101000a81548160ff021916908360038111156117ff57fe5b021790555060208201518160000160016101000a81548160ff02191690831515021790555060408201518160000160026101000a81548160ff02191690831515021790555060608201518160000160036101000a81548160ff02191690831515021790555060808201518160000160046101000a81548160ff02191690831515021790555060a08201518160000160056101000a81548160ff02191690831515021790555060c08201518160000160066101000a81548160ff02191690831515021790555060e08201518160000160076101000a81548160ff0219169083151502179055506101008201518160000160086101000a81548160ff0219169083151502179055509050506001915050919050565b6000809054906101000a900473ffffffffffffffffffffffffffffffffffffffff1681565b6000336000600381111561194757fe5b600260008373ffffffffffffffffffffffffffffffffffffffff1673ffffffffffffffffffffffffffffffffffffffff16815260200190815260200160002060010160019054906101000a900460ff1660038111156119a257fe5b14156119e3576040517f08c379a00000000000000000000000000000000000000000000000000000000081526004016119da906154a2565b60405180910390fd5b600360008473ffffffffffffffffffffffffffffffffffffffff1673ffffffffffffffffffffffffffffffffffffffff16815260200190815260200160002060003373ffffffffffffffffffffffffffffffffffffffff1673ffffffffffffffffffffffffffffffffffffffff16815260200190815260200160002060000160009054906101000a900460ff16915050919050565b6002602052806000526040600020600091509050806000018054600181600116156101000203166002900480601f016020809104026020016040519081016040528092919081815260200182805460018160011615610100020316600290048015611b245780601f10611af957610100808354040283529160200191611b24565b820191906000526020600020905b815481529060010190602001808311611b0757829003601f168201915b5050505050908060010160009054906101000a900460ff16908060010160019054906101000a900460ff16905083565b60606000803360006003811115611b6757fe5b600160008373ffffffffffffffffffffffffffffffffffffffff1673ffffffffffffffffffffffffffffffffffffffff16815260200190815260200160002060010160009054906101000a900460ff166003811115611bc257fe5b1415611c03576040517f08c379a0000000000000000000000000000000000000000000000000000000008152600401611bfa906153c2565b60405180910390fd5b611c0b614600565b600460003373ffffffffffffffffffffffffffffffffffffffff1673ffffffffffffffffffffffffffffffffffffffff16815260200190815260200160002086604051611c5891906150a2565b9081526020016040518091039020604051806080016040529081600082018054600181600116156101000203166002900480601f016020809104026020016040519081016040528092919081815260200182805460018160011615610100020316600290048015611d0a5780601f10611cdf57610100808354040283529160200191611d0a565b820191906000526020600020905b815481529060010190602001808311611ced57829003601f168201915b505050505081526020016001820160009054906101000a900473ffffffffffffffffffffffffffffffffffffffff1673ffffffffffffffffffffffffffffffffffffffff1673ffffffffffffffffffffffffffffffffffffffff1681526020016001820160149054906101000a900460ff166005811115611d8757fe5b6005811115611d9257fe5b81526020016001820160159054906101000a900460ff166003811115611db457fe5b6003811115611dbf57fe5b81525050905080600001518160400151826060015182925094509450945050509193909250565b60003360006003811115611df657fe5b600160008373ffffffffffffffffffffffffffffffffffffffff1673ffffffffffffffffffffffffffffffffffffffff16815260200190815260200160002060010160009054906101000a900460ff166003811115611e5157fe5b1415611e92576040517f08c379a0000000000000000000000000000000000000000000000000000000008152600401611e89906153c2565b60405180910390fd5b60006003811115611e9f57fe5b600360003373ffffffffffffffffffffffffffffffffffffffff1673ffffffffffffffffffffffffffffffffffffffff16815260200190815260200160002060008573ffffffffffffffffffffffffffffffffffffffff1673ffffffffffffffffffffffffffffffffffffffff16815260200190815260200160002060000160009054906101000a900460ff166003811115611f3757fe5b1415611f78576040517f08c379a0000000000000000000000000000000000000000000000000000000008152600401611f6f90615422565b60405180910390fd5b60038060003373ffffffffffffffffffffffffffffffffffffffff1673ffffffffffffffffffffffffffffffffffffffff16815260200190815260200160002060008573ffffffffffffffffffffffffffffffffffffffff1673ffffffffffffffffffffffffffffffffffffffff16815260200190815260200160002060000160006101000a81548160ff0219169083600381111561201357fe5b02179055506001915050919050565b6000336000600381111561203257fe5b600160008373ffffffffffffffffffffffffffffffffffffffff1673ffffffffffffffffffffffffffffffffffffffff16815260200190815260200160002060010160009054906101000a900460ff16600381111561208d57fe5b14156120ce576040517f08c379a00000000000000000000000000000000000000000000000000000000081526004016120c5906153c2565b60405180910390fd5b86600160003373ffffffffffffffffffffffffffffffffffffffff1673ffffffffffffffffffffffffffffffffffffffff1681526020019081526020016000206000019080519060200190612124929190614654565b5085600160003373ffffffffffffffffffffffffffffffffffffffff1673ffffffffffffffffffffffffffffffffffffffff168152602001908152602001600020600201908051906020019061217b929190614654565b5084600160003373ffffffffffffffffffffffffffffffffffffffff1673ffffffffffffffffffffffffffffffffffffffff16815260200190815260200160002060030190805190602001906121d2929190614654565b5083600160003373ffffffffffffffffffffffffffffffffffffffff1673ffffffffffffffffffffffffffffffffffffffff1681526020019081526020016000206005019080519060200190612229929190614654565b5082600160003373ffffffffffffffffffffffffffffffffffffffff1673ffffffffffffffffffffffffffffffffffffffff1681526020019081526020016000206006019080519060200190612280929190614654565b5060018060003373ffffffffffffffffffffffffffffffffffffffff1673ffffffffffffffffffffffffffffffffffffffff16815260200190815260200160002060010160006101000a81548160ff021916908360038111156122df57fe5b0217905550600191505095945050505050565b606060006060806060806060336000600381111561230c57fe5b600260008373ffffffffffffffffffffffffffffffffffffffff1673ffffffffffffffffffffffffffffffffffffffff16815260200190815260200160002060010160019054906101000a900460ff16600381111561236757fe5b14156123a8576040517f08c379a000000000000000000000000000000000000000000000000000000000815260040161239f906154a2565b60405180910390fd5b600260038111156123b557fe5b600360008b73ffffffffffffffffffffffffffffffffffffffff1673ffffffffffffffffffffffffffffffffffffffff16815260200190815260200160002060003373ffffffffffffffffffffffffffffffffffffffff1673ffffffffffffffffffffffffffffffffffffffff16815260200190815260200160002060000160009054906101000a900460ff16600381111561244d57fe5b1461248d576040517f08c379a000000000000000000000000000000000000000000000000000000000815260040161248490615482565b60405180910390fd5b61249561451a565b600160008b73ffffffffffffffffffffffffffffffffffffffff1673ffffffffffffffffffffffffffffffffffffffff16815260200190815260200160002060405180610100016040529081600082018054600181600116156101000203166002900480601f0160208091040260200160405190810160405280929190818152602001828054600181600116156101000203166002900480156125795780601f1061254e57610100808354040283529160200191612579565b820191906000526020600020905b81548152906001019060200180831161255c57829003601f168201915b505050505081526020016001820160009054906101000a900460ff1660038111156125a057fe5b60038111156125ab57fe5b8152602001600282018054600181600116156101000203166002900480601f0160208091040260200160405190810160405280929190818152602001828054600181600116156101000203166002900480156126485780601f1061261d57610100808354040283529160200191612648565b820191906000526020600020905b81548152906001019060200180831161262b57829003601f168201915b50505050508152602001600382018054600181600116156101000203166002900480601f0160208091040260200160405190810160405280929190818152602001828054600181600116156101000203166002900480156126ea5780601f106126bf576101008083540402835291602001916126ea565b820191906000526020600020905b8154815290600101906020018083116126cd57829003601f168201915b50505050508152602001600482018054600181600116156101000203166002900480601f01602080910402602001604051908101604052809291908181526020018280546001816001161561010002031660029004801561278c5780601f106127615761010080835404028352916020019161278c565b820191906000526020600020905b81548152906001019060200180831161276f57829003601f168201915b50505050508152602001600582018054600181600116156101000203166002900480601f01602080910402602001604051908101604052809291908181526020018280546001816001161561010002031660029004801561282e5780601f106128035761010080835404028352916020019161282e565b820191906000526020600020905b81548152906001019060200180831161281157829003601f168201915b50505050508152602001600682018054600181600116156101000203166002900480601f0160208091040260200160405190810160405280929190818152602001828054600181600116156101000203166002900480156128d05780601f106128a5576101008083540402835291602001916128d0565b820191906000526020600020905b8154815290600101906020018083116128b357829003601f168201915b505050505081526020016007820160009054906101000a900473ffffffffffffffffffffffffffffffffffffffff1673ffffffffffffffffffffffffffffffffffffffff1673ffffffffffffffffffffffffffffffffffffffff16815250509050600360008b73ffffffffffffffffffffffffffffffffffffffff1673ffffffffffffffffffffffffffffffffffffffff16815260200190815260200160002060003373ffffffffffffffffffffffffffffffffffffffff1673ffffffffffffffffffffffffffffffffffffffff16815260200190815260200160002060000160039054906101000a900460ff166129f3576040518060200160405280600081525081604001819052506040518060200160405280600081525081606001819052505b600360008b73ffffffffffffffffffffffffffffffffffffffff1673ffffffffffffffffffffffffffffffffffffffff16815260200190815260200160002060003373ffffffffffffffffffffffffffffffffffffffff1673ffffffffffffffffffffffffffffffffffffffff16815260200190815260200160002060000160059054906101000a900460ff16612ab557604051806020016040528060008152508160800181905250604051806020016040528060008152508160a001819052505b600360008b73ffffffffffffffffffffffffffffffffffffffff1673ffffffffffffffffffffffffffffffffffffffff16815260200190815260200160002060003373ffffffffffffffffffffffffffffffffffffffff1673ffffffffffffffffffffffffffffffffffffffff16815260200190815260200160002060000160049054906101000a900460ff16612b5f57604051806020016040528060008152508160c001819052505b806000015181602001518260400151836060015184608001518560a001518660c0015186965084945083935082925081915080905098509850985098509850985098505050919395979092949650565b60003360006003811115612bbf57fe5b600260008373ffffffffffffffffffffffffffffffffffffffff1673ffffffffffffffffffffffffffffffffffffffff16815260200190815260200160002060010160019054906101000a900460ff166003811115612c1a57fe5b1415612c5b576040517f08c379a0000000000000000000000000000000000000000000000000000000008152600401612c52906154a2565b60405180910390fd5b6002600460008673ffffffffffffffffffffffffffffffffffffffff1673ffffffffffffffffffffffffffffffffffffffff16815260200190815260200160002084604051612caa91906150a2565b908152602001604051809103902060010160156101000a81548160ff02191690836003811115612cd657fe5b0217905550600191505092915050565b60056020528060005260406000206000915090508054600181600116156101000203166002900480601f016020809104026020016040519081016040528092919081815260200182805460018160011615610100020316600290048015612d8e5780601f10612d6357610100808354040283529160200191612d8e565b820191906000526020600020905b815481529060010190602001808311612d7157829003601f168201915b505050505081565b60046020528160005260406000208180516020810182018051848252602083016020850120818352809550505050505060009150915050806000018054600181600116156101000203166002900480601f016020809104026020016040519081016040528092919081815260200182805460018160011615610100020316600290048015612e655780601f10612e3a57610100808354040283529160200191612e65565b820191906000526020600020905b815481529060010190602001808311612e4857829003601f168201915b5050505050908060010160009054906101000a900473ffffffffffffffffffffffffffffffffffffffff16908060010160149054906101000a900460ff16908060010160159054906101000a900460ff16905084565b60003360006003811115612ecb57fe5b600160008373ffffffffffffffffffffffffffffffffffffffff1673ffffffffffffffffffffffffffffffffffffffff16815260200190815260200160002060010160009054906101000a900460ff166003811115612f2657fe5b1415612f67576040517f08c379a0000000000000000000000000000000000000000000000000000000008152600401612f5e906153c2565b60405180910390fd5b60405180610120016040528060026003811115612f8057fe5b815260200160011515815260200160011515815260200160011515815260200160011515815260200160011515815260200160011515815260200160011515815260200160011515815250600360003373ffffffffffffffffffffffffffffffffffffffff1673ffffffffffffffffffffffffffffffffffffffff16815260200190815260200160002060008573ffffffffffffffffffffffffffffffffffffffff1673ffffffffffffffffffffffffffffffffffffffff16815260200190815260200160002060008201518160000160006101000a81548160ff0219169083600381111561306b57fe5b021790555060208201518160000160016101000a81548160ff02191690831515021790555060408201518160000160026101000a81548160ff02191690831515021790555060608201518160000160036101000a81548160ff02191690831515021790555060808201518160000160046101000a81548160ff02191690831515021790555060a08201518160000160056101000a81548160ff02191690831515021790555060c08201518160000160066101000a81548160ff02191690831515021790555060e08201518160000160076101000a81548160ff0219169083151502179055506101008201518160000160086101000a81548160ff0219169083151502179055509050506001915050919050565b6001602052806000526040600020600091509050806000018054600181600116156101000203166002900480601f01602080910402602001604051908101604052809291908181526020018280546001816001161561010002031660029004801561322a5780601f106131ff5761010080835404028352916020019161322a565b820191906000526020600020905b81548152906001019060200180831161320d57829003601f168201915b5050505050908060010160009054906101000a900460ff1690806002018054600181600116156101000203166002900480601f0160208091040260200160405190810160405280929190818152602001828054600181600116156101000203166002900480156132db5780601f106132b0576101008083540402835291602001916132db565b820191906000526020600020905b8154815290600101906020018083116132be57829003601f168201915b505050505090806003018054600181600116156101000203166002900480601f0160208091040260200160405190810160405280929190818152602001828054600181600116156101000203166002900480156133795780601f1061334e57610100808354040283529160200191613379565b820191906000526020600020905b81548152906001019060200180831161335c57829003601f168201915b505050505090806004018054600181600116156101000203166002900480601f0160208091040260200160405190810160405280929190818152602001828054600181600116156101000203166002900480156134175780601f106133ec57610100808354040283529160200191613417565b820191906000526020600020905b8154815290600101906020018083116133fa57829003601f168201915b505050505090806005018054600181600116156101000203166002900480601f0160208091040260200160405190810160405280929190818152602001828054600181600116156101000203166002900480156134b55780601f1061348a576101008083540402835291602001916134b5565b820191906000526020600020905b81548152906001019060200180831161349857829003601f168201915b505050505090806006018054600181600116156101000203166002900480601f0160208091040260200160405190810160405280929190818152602001828054600181600116156101000203166002900480156135535780601f1061352857610100808354040283529160200191613553565b820191906000526020600020905b81548152906001019060200180831161353657829003601f168201915b5050505050908060070160009054906101000a900473ffffffffffffffffffffffffffffffffffffffff16905088565b6000336000600381111561359357fe5b600160008373ffffffffffffffffffffffffffffffffffffffff1673ffffffffffffffffffffffffffffffffffffffff16815260200190815260200160002060010160009054906101000a900460ff1660038111156135ee57fe5b141561362f576040517f08c379a0000000000000000000000000000000000000000000000000000000008152600401613626906153c2565b60405180910390fd5b60405180608001604052808781526020018673ffffffffffffffffffffffffffffffffffffffff16815260200185600581111561366857fe5b81526020016001600381111561367a57fe5b815250600460003373ffffffffffffffffffffffffffffffffffffffff1673ffffffffffffffffffffffffffffffffffffffff168152602001908152602001600020846040516136ca91906150a2565b908152602001604051809103902060008201518160000190805190602001906136f4929190614580565b5060208201518160010160006101000a81548173ffffffffffffffffffffffffffffffffffffffff021916908373ffffffffffffffffffffffffffffffffffffffff16021790555060408201518160010160146101000a81548160ff0219169083600581111561376057fe5b021790555060608201518160010160156101000a81548160ff0219169083600381111561378957fe5b02179055509050506001915050949350505050565b6003602052816000526040600020602052806000526040600020600091509150508060000160009054906101000a900460ff16908060000160019054906101000a900460ff16908060000160029054906101000a900460ff16908060000160039054906101000a900460ff16908060000160049054906101000a900460ff16908060000160059054906101000a900460ff16908060000160069054906101000a900460ff16908060000160079054906101000a900460ff16908060000160089054906101000a900460ff16905089565b6000336000600381111561387e57fe5b600260008373ffffffffffffffffffffffffffffffffffffffff1673ffffffffffffffffffffffffffffffffffffffff16815260200190815260200160002060010160019054906101000a900460ff1660038111156138d957fe5b141561391a576040517f08c379a0000000000000000000000000000000000000000000000000000000008152600401613911906154a2565b60405180910390fd5b6002600160008573ffffffffffffffffffffffffffffffffffffffff1673ffffffffffffffffffffffffffffffffffffffff16815260200190815260200160002060010160006101000a81548160ff0219169083600381111561397957fe5b02179055506001915050919050565b6000336000600381111561399857fe5b600160008373ffffffffffffffffffffffffffffffffffffffff1673ffffffffffffffffffffffffffffffffffffffff16815260200190815260200160002060010160009054906101000a900460ff1660038111156139f357fe5b1415613a34576040517f08c379a0000000000000000000000000000000000000000000000000000000008152600401613a2b906153c2565b60405180910390fd5b600460003373ffffffffffffffffffffffffffffffffffffffff1673ffffffffffffffffffffffffffffffffffffffff16815260200190815260200160002083604051613a8191906150a2565b908152602001604051809103902060008082016000613aa091906146d4565b6001820160006101000a81549073ffffffffffffffffffffffffffffffffffffffff02191690556001820160146101000a81549060ff02191690556001820160156101000a81549060ff021916905550506001915050919050565b60606000803360006003811115613b0e57fe5b600260008373ffffffffffffffffffffffffffffffffffffffff1673ffffffffffffffffffffffffffffffffffffffff16815260200190815260200160002060010160019054906101000a900460ff166003811115613b6957fe5b1415613baa576040517f08c379a0000000000000000000000000000000000000000000000000000000008152600401613ba1906154a2565b60405180910390fd5b60026003811115613bb757fe5b600360008873ffffffffffffffffffffffffffffffffffffffff1673ffffffffffffffffffffffffffffffffffffffff16815260200190815260200160002060003373ffffffffffffffffffffffffffffffffffffffff1673ffffffffffffffffffffffffffffffffffffffff16815260200190815260200160002060000160009054906101000a900460ff166003811115613c4f57fe5b14613c8f576040517f08c379a0000000000000000000000000000000000000000000000000000000008152600401613c8690615482565b60405180910390fd5b613c97614600565b600460008873ffffffffffffffffffffffffffffffffffffffff1673ffffffffffffffffffffffffffffffffffffffff16815260200190815260200160002086604051613ce491906150a2565b9081526020016040518091039020604051806080016040529081600082018054600181600116156101000203166002900480601f016020809104026020016040519081016040528092919081815260200182805460018160011615610100020316600290048015613d965780601f10613d6b57610100808354040283529160200191613d96565b820191906000526020600020905b815481529060010190602001808311613d7957829003601f168201915b505050505081526020016001820160009054906101000a900473ffffffffffffffffffffffffffffffffffffffff1673ffffffffffffffffffffffffffffffffffffffff1673ffffffffffffffffffffffffffffffffffffffff1681526020016001820160149054906101000a900460ff166005811115613e1357fe5b6005811115613e1e57fe5b81526020016001820160159054906101000a900460ff166003811115613e4057fe5b6003811115613e4b57fe5b81525050905060016005811115613e5e57fe5b81604001516005811115613e6e57fe5b148015613f045750600360008873ffffffffffffffffffffffffffffffffffffffff1673ffffffffffffffffffffffffffffffffffffffff16815260200190815260200160002060003373ffffffffffffffffffffffffffffffffffffffff1673ffffffffffffffffffffffffffffffffffffffff16815260200190815260200160002060000160019054906101000a900460ff165b15613f27578060000151816040015182606001518292509450945094505061429b565b60026005811115613f3457fe5b81604001516005811115613f4457fe5b148015613fda5750600360008873ffffffffffffffffffffffffffffffffffffffff1673ffffffffffffffffffffffffffffffffffffffff16815260200190815260200160002060003373ffffffffffffffffffffffffffffffffffffffff1673ffffffffffffffffffffffffffffffffffffffff16815260200190815260200160002060000160029054906101000a900460ff165b15613ffd578060000151816040015182606001518292509450945094505061429b565b6003600581111561400a57fe5b8160400151600581111561401a57fe5b1480156140b05750600360008873ffffffffffffffffffffffffffffffffffffffff1673ffffffffffffffffffffffffffffffffffffffff16815260200190815260200160002060003373ffffffffffffffffffffffffffffffffffffffff1673ffffffffffffffffffffffffffffffffffffffff16815260200190815260200160002060000160069054906101000a900460ff165b156140d3578060000151816040015182606001518292509450945094505061429b565b600460058111156140e057fe5b816040015160058111156140f057fe5b1480156141865750600360008873ffffffffffffffffffffffffffffffffffffffff1673ffffffffffffffffffffffffffffffffffffffff16815260200190815260200160002060003373ffffffffffffffffffffffffffffffffffffffff1673ffffffffffffffffffffffffffffffffffffffff16815260200190815260200160002060000160079054906101000a900460ff165b156141a9578060000151816040015182606001518292509450945094505061429b565b6005808111156141b557fe5b816040015160058111156141c557fe5b14801561425b5750600360008873ffffffffffffffffffffffffffffffffffffffff1673ffffffffffffffffffffffffffffffffffffffff16815260200190815260200160002060003373ffffffffffffffffffffffffffffffffffffffff1673ffffffffffffffffffffffffffffffffffffffff16815260200190815260200160002060000160089054906101000a900460ff165b1561427e578060000151816040015182606001518292509450945094505061429b565b600080604051806020016040528060008152509190945094509450505b509250925092565b600087600060038111156142b357fe5b600160008373ffffffffffffffffffffffffffffffffffffffff1673ffffffffffffffffffffffffffffffffffffffff16815260200190815260200160002060010160009054906101000a900460ff16600381111561430e57fe5b1461434e576040517f08c379a0000000000000000000000000000000000000000000000000000000008152600401614345906153e2565b60405180910390fd5b6040518061010001604052808981526020016001600381111561436d57fe5b81526020018881526020018781526020018681526020018581526020018481526020013373ffffffffffffffffffffffffffffffffffffffff16815250600160008b73ffffffffffffffffffffffffffffffffffffffff1673ffffffffffffffffffffffffffffffffffffffff1681526020019081526020016000206000820151816000019080519060200190614405929190614580565b5060208201518160010160006101000a81548160ff0219169083600381111561442a57fe5b0217905550604082015181600201908051906020019061444b929190614580565b506060820151816003019080519060200190614468929190614580565b506080820151816004019080519060200190614485929190614580565b5060a08201518160050190805190602001906144a2929190614580565b5060c08201518160060190805190602001906144bf929190614580565b5060e08201518160070160006101000a81548173ffffffffffffffffffffffffffffffffffffffff021916908373ffffffffffffffffffffffffffffffffffffffff1602179055509050506001915050979650505050505050565b604051806101000160405280606081526020016000600381111561453a57fe5b81526020016060815260200160608152602001606081526020016060815260200160608152602001600073ffffffffffffffffffffffffffffffffffffffff1681525090565b828054600181600116156101000203166002900490600052602060002090601f016020900481019282601f106145c157805160ff19168380011785556145ef565b828001600101855582156145ef579182015b828111156145ee5782518255916020019190600101906145d3565b5b5090506145fc919061471c565b5090565b604051806080016040528060608152602001600073ffffffffffffffffffffffffffffffffffffffff1681526020016000600581111561463c57fe5b81526020016000600381111561464e57fe5b81525090565b828054600181600116156101000203166002900490600052602060002090601f016020900481019282601f1061469557805160ff19168380011785556146c3565b828001600101855582156146c3579182015b828111156146c25782518255916020019190600101906146a7565b5b5090506146d0919061471c565b5090565b50805460018160011615610100020316600290046000825580601f106146fa5750614719565b601f016020900490600052602060002090810190614718919061471c565b5b50565b61473e91905b8082111561473a576000816000905550600101614722565b5090565b90565b600081359050614750816156a0565b92915050565b600081359050614765816156b7565b92915050565b60008135905061477a816156ce565b92915050565b60008135905061478f816156de565b92915050565b600082601f8301126147a657600080fd5b81356147b96147b4826154ef565b6154c2565b915080825260208301602083018583830111156147d557600080fd5b6147e0838284615626565b50505092915050565b600082601f8301126147fa57600080fd5b813561480d6148088261551b565b6154c2565b9150808252602083016020830185838301111561482957600080fd5b614834838284615626565b50505092915050565b60006020828403121561484f57600080fd5b600061485d84828501614741565b91505092915050565b6000806040838503121561487957600080fd5b600061488785828601614741565b925050602061489885828601614741565b9150509250929050565b60008060008060008060008060006101208a8c0312156148c157600080fd5b60006148cf8c828d01614741565b99505060206148e08c828d01614756565b98505060406148f18c828d01614756565b97505060606149028c828d01614756565b96505060806149138c828d01614756565b95505060a06149248c828d01614756565b94505060c06149358c828d01614756565b93505060e06149468c828d01614756565b9250506101006149588c828d01614756565b9150509295985092959850929598565b6000806040838503121561497b57600080fd5b600061498985828601614741565b925050602083013567ffffffffffffffff8111156149a657600080fd5b6149b285828601614795565b9150509250929050565b600080604083850312156149cf57600080fd5b60006149dd85828601614741565b925050602083013567ffffffffffffffff8111156149fa57600080fd5b614a06858286016147e9565b9150509250929050565b600080600060608486031215614a2557600080fd5b6000614a3386828701614741565b935050602084013567ffffffffffffffff811115614a5057600080fd5b614a5c868287016147e9565b9250506040614a6d86828701614780565b9150509250925092565b600080600080600080600060e0888a031215614a9257600080fd5b6000614aa08a828b01614741565b975050602088013567ffffffffffffffff811115614abd57600080fd5b614ac98a828b016147e9565b965050604088013567ffffffffffffffff811115614ae657600080fd5b614af28a828b016147e9565b955050606088013567ffffffffffffffff811115614b0f57600080fd5b614b1b8a828b016147e9565b945050608088013567ffffffffffffffff811115614b3857600080fd5b614b448a828b016147e9565b93505060a088013567ffffffffffffffff811115614b6157600080fd5b614b6d8a828b016147e9565b92505060c088013567ffffffffffffffff811115614b8a57600080fd5b614b968a828b016147e9565b91505092959891949750929550565b600060208284031215614bb757600080fd5b600082013567ffffffffffffffff811115614bd157600080fd5b614bdd848285016147e9565b91505092915050565b60008060008060808587031215614bfc57600080fd5b600085013567ffffffffffffffff811115614c1657600080fd5b614c22878288016147e9565b9450506020614c3387828801614741565b9350506040614c448782880161476b565b925050606085013567ffffffffffffffff811115614c6157600080fd5b614c6d878288016147e9565b91505092959194509250565b600080600080600060a08688031215614c9157600080fd5b600086013567ffffffffffffffff811115614cab57600080fd5b614cb7888289016147e9565b955050602086013567ffffffffffffffff811115614cd457600080fd5b614ce0888289016147e9565b945050604086013567ffffffffffffffff811115614cfd57600080fd5b614d09888289016147e9565b935050606086013567ffffffffffffffff811115614d2657600080fd5b614d32888289016147e9565b925050608086013567ffffffffffffffff811115614d4f57600080fd5b614d5b888289016147e9565b9150509295509295909350565b614d7181615579565b82525050565b614d808161558b565b82525050565b614d8f816155f0565b82525050565b614d9e81615602565b82525050565b614dad81615614565b82525050565b6000614dbe82615552565b614dc8818561555d565b9350614dd8818560208601615635565b614de181615668565b840191505092915050565b6000614df782615552565b614e01818561556e565b9350614e11818560208601615635565b80840191505092915050565b6000614e2882615547565b614e32818561555d565b9350614e42818560208601615635565b614e4b81615668565b840191505092915050565b6000614e6360148361555d565b91507f4e6f7420612076616c696420437573746f6d65720000000000000000000000006000830152602082019050919050565b6000614ea3601d8361555d565b91507f437573746f6d657220416c7265616479205265676973746572656421210000006000830152602082019050919050565b6000614ee360188361555d565b91507f4f726720416c72656164792052656769737465726564212100000000000000006000830152602082019050919050565b6000614f23601b8361555d565b91507f424756205265717565737420646f6573206e6f742065786973742e00000000006000830152602082019050919050565b6000614f6360378361555d565b91507f506c656173652041736b205573657220746f20696e697469617465207665726960008301527f6669636174696f6e20726571756573742066697273742e0000000000000000006020830152604082019050919050565b6000614fc960138361555d565b91507f4e6f7420616e2041646d696e20557365722121000000000000000000000000006000830152602082019050919050565b6000615009602c8361555d565b91507f4247562052657175657374206973206e6f7420617070726f766564206279206360008301527f7573746f6d6572207965742e00000000000000000000000000000000000000006020830152604082019050919050565b600061506f60188361555d565b91507f4e6f7420612076616c6964204f7267616e697a6174696f6e00000000000000006000830152602082019050919050565b60006150ae8284614dec565b915081905092915050565b60006020820190506150ce6000830184614d68565b92915050565b60006020820190506150e96000830184614d77565b92915050565b60006020820190506151046000830184614da4565b92915050565b600061012082019050615120600083018c614da4565b61512d602083018b614d77565b61513a604083018a614d77565b6151476060830189614d77565b6151546080830188614d77565b61516160a0830187614d77565b61516e60c0830186614d77565b61517b60e0830185614d77565b615189610100830184614d77565b9a9950505050505050505050565b600060208201905081810360008301526151b18184614e1d565b905092915050565b600060608201905081810360008301526151d38186614db3565b90506151e26020830185614d86565b6151ef6040830184614da4565b949350505050565b600060e0820190508181036000830152615211818a614db3565b90506152206020830189614da4565b81810360408301526152328188614db3565b905081810360608301526152468187614db3565b9050818103608083015261525a8186614db3565b905081810360a083015261526e8185614db3565b905081810360c08301526152828184614db3565b905098975050505050505050565b600060808201905081810360008301526152aa8187614e1d565b90506152b96020830186614d68565b6152c66040830185614d86565b6152d36060830184614da4565b95945050505050565b600060608201905081810360008301526152f68186614e1d565b90506153056020830185614d95565b6153126040830184614da4565b949350505050565b6000610100820190508181036000830152615335818b614e1d565b9050615344602083018a614da4565b81810360408301526153568189614e1d565b9050818103606083015261536a8188614e1d565b9050818103608083015261537e8187614e1d565b905081810360a08301526153928186614e1d565b905081810360c08301526153a68185614e1d565b90506153b560e0830184614d68565b9998505050505050505050565b600060208201905081810360008301526153db81614e56565b9050919050565b600060208201905081810360008301526153fb81614e96565b9050919050565b6000602082019050818103600083015261541b81614ed6565b9050919050565b6000602082019050818103600083015261543b81614f16565b9050919050565b6000602082019050818103600083015261545b81614f56565b9050919050565b6000602082019050818103600083015261547b81614fbc565b9050919050565b6000602082019050818103600083015261549b81614ffc565b9050919050565b600060208201905081810360008301526154bb81615062565b9050919050565b6000604051905081810181811067ffffffffffffffff821117156154e557600080fd5b8060405250919050565b600067ffffffffffffffff82111561550657600080fd5b601f19601f8301169050602081019050919050565b600067ffffffffffffffff82111561553257600080fd5b601f19601f8301169050602081019050919050565b600081519050919050565b600081519050919050565b600082825260208201905092915050565b600081905092915050565b6000615584826155d0565b9050919050565b60008115159050919050565b60008190506155a582615679565b919050565b60008190506155b882615686565b919050565b60008190506155cb82615693565b919050565b600073ffffffffffffffffffffffffffffffffffffffff82169050919050565b60006155fb82615597565b9050919050565b600061560d826155aa565b9050919050565b600061561f826155bd565b9050919050565b82818337600083830152505050565b60005b83811015615653578082015181840152602081019050615638565b83811115615662576000848401525b50505050565b6000601f19601f8301169050919050565b6006811061568357fe5b50565b6007811061569057fe5b50565b6004811061569d57fe5b50565b6156a981615579565b81146156b457600080fd5b50565b6156c08161558b565b81146156cb57600080fd5b50565b600681106156db57600080fd5b50565b600781106156eb57600080fd5b5056fea365627a7a72315820fbdf1c74bcadcfd2d6af6333b0310e5bee8ca65caa17dda1b9ed12ce05d80d896c6578706572696d656e74616cf564736f6c63430005100040",
  "source": "pragma solidity 0.5.16;\r\npragma experimental ABIEncoderV2;\r\n\r\ncontract SDV{\r\n    address public accounOwner;\r\n\r\n\tenum State { NotExist, Pending, Approved, Rejected }\r\n\tenum DocType { NotExist, Education, Employment, AadharCard, PanCard, DrivingLicense}\r\n\tenum OrgType { NotExist, Education, Employment, AadharCard, PanCard, DrivingLicense, TPVA}\r\n\t\r\n\tstruct User {\r\n\t\tstring uname;\r\n\t\tState state;\r\n\t\tstring permanentAddress;\r\n\t\tstring currentAddress;\r\n\t\tstring email;\r\n\t\tstring phone;\r\n\t\tstring refEmail;\r\n\t\taddress createdBy;\r\n\t}\r\n\t\r\n\tstruct Document {\r\n\t    string name;\r\n\t    address issuedby;\r\n\t    DocType docType;\r\n\t    State state;\r\n\t}\r\n\t\r\n\tstruct Organisation {\r\n        string oname;\r\n        OrgType otype;\r\n        State state;\r\n    }\r\n\r\n    struct BGVRequest {\r\n        State state;\r\n        bool canViewEducation;\r\n        bool canViewEmployer;\r\n        bool canViewAddress;\r\n        bool canViewReferences;\r\n        bool canViewContactDetails;\r\n        bool canViewAadhar;\r\n        bool canViewPan;\r\n        bool canViewDL;\r\n    }\r\n\r\n\tmapping (address => User) public users;\r\n\tmapping (address => Organisation) public organisations;\r\n\tmapping (address => mapping (address => BGVRequest)) public kycRequests;\r\n\tmapping (address => mapping (string  => Document)) public documents;\r\n\tmapping (address => string) public userDocuments;\r\n\tmapping (string => Document) documentDetails;\r\n\t\r\n\t\r\n\tconstructor() public {\r\n\t\taccounOwner = msg.sender;\r\n\t}\r\n    \r\n    //Only Admin\r\n    modifier onlyOwner(){\r\n        require (accounOwner == msg.sender, \"Not an Admin User!!\");\r\n        _;\r\n    }\r\n    \r\n    //Check if customer is already registered\r\n    modifier notRegisteredCustomer(address _newUser) {\r\n\t\trequire(users[_newUser].state == State.NotExist, \"Customer Already Registered!!\");\r\n\t\t_;\r\n    }\r\n    \r\n    //Check if Org is already registered\r\n    modifier notRegisteredOrg(address _newOrg) {\r\n\t\trequire(organisations[_newOrg].state == State.NotExist, \"Org Already Registered!!\");\r\n\t\t_;\r\n    }\r\n    \r\n     //Check for a valid Org\r\n    modifier registeredOrg(address _oAddress) {\r\n\t\trequire(organisations[_oAddress].state != State.NotExist, \"Not a valid Organization\");\r\n\t\t_;\r\n    }\r\n    \r\n    //Check for a valid Customer\r\n    modifier registeredCustomer(address _uAddress) {\r\n\t\trequire(users[_uAddress].state != State.NotExist, \"Not a valid Customer\");\r\n\t\t_;\r\n    }\r\n\t\r\n\t// All: Create new Customer\r\n\tfunction addNewCustomer(address _userAddress, string memory _name, string memory _pAddress,string memory _cAddress, string memory _email, string memory _phone, string memory _refEmail) public notRegisteredCustomer (_userAddress)  returns (bool success) {\r\n\t\tusers[_userAddress] = User(_name, State.Pending, _pAddress, _cAddress, _email, _phone, _refEmail, msg.sender);\r\n\t\treturn true;\r\n\t}\r\n\t\r\n\t//Admin: Create New Org \r\n\tfunction addNewOrg(address _oAddress, string memory _name, OrgType _type) public onlyOwner notRegisteredOrg(_oAddress) returns (bool success) {\r\n\t\torganisations[_oAddress] = Organisation(_name, _type, State.Approved);\r\n\t\treturn true;\r\n\t}\r\n\r\n    //Org: Verify a customer\r\n\tfunction verifyCustomer(address _uaddress) public registeredOrg(msg.sender) returns (bool success){\r\n\t    users[_uaddress].state = State.Approved;\r\n\t    return true;\r\n    }\r\n    \r\n    //Org: Verify a document\r\n\tfunction verifyDocument(address _uaddress, string memory _docId) public registeredOrg(msg.sender) returns (bool success){\r\n\t    documents[_uaddress][_docId].state = State.Approved;\r\n\t    return true;\r\n    }\r\n    \r\n     //Org: Reject a document\r\n\tfunction rejectDocument(address _uaddress, string memory _docId) public registeredOrg(msg.sender) returns (bool success){\r\n\t    documents[_uaddress][_docId].state = State.Rejected;\r\n\t    return true;\r\n    }\r\n    \r\n    //Org: Send BGV Request to customer\r\n\tfunction sendBgvRequest(address _uAddress) public registeredOrg(msg.sender) returns (bool success) {\r\n\t    require(users[_uAddress].state == State.Approved, \"Please Ask User to initiate verification request first.\");\r\n        kycRequests[_uAddress][msg.sender] = BGVRequest(State.Pending, false, false, false , false, false, false, false, false);\r\n        //emit NewKYCRequest(_uAddress, msg.sender);\r\n        return true;\r\n    }\r\n    \r\n    //Org: Check KYC Request status for a customer\r\n    function checkBgvStatus(address _uAddress) public view registeredOrg(msg.sender) returns (State) {\r\n        \r\n        return kycRequests[_uAddress][msg.sender].state;\r\n    }\r\n    \r\n    // Org: Get User Details\r\n\tfunction getUserBasicDetails(address _userAddress) public view registeredOrg(msg.sender) returns (string memory, State, string memory, string memory, string memory, string memory, string memory) {\r\n\t\t\r\n\t\trequire(kycRequests[_userAddress][msg.sender].state == State.Approved, \"BGV Request is not approved by customer yet.\");\r\n\t\t\r\n\t\tUser memory user = users[_userAddress];\r\n\t\t\r\n\t\tif(!kycRequests[_userAddress][msg.sender].canViewAddress)\r\n\t\t{\r\n\t\t    user.permanentAddress = \"\";\r\n\t\t    user.currentAddress = \"\";\r\n\t\t}\r\n\t\t\r\n\t\tif(!kycRequests[_userAddress][msg.sender].canViewContactDetails)\r\n\t\t{\r\n\t\t    user.email = \"\";\r\n\t\t    user.phone = \"\";\r\n\t\t}\r\n\t\t\r\n\t\tif(!kycRequests[_userAddress][msg.sender].canViewReferences)\r\n\t\t{\r\n\t\t    user.refEmail = \"\";\r\n\t\t}\r\n\t\t\r\n\t   return (user.uname, user.state, user.permanentAddress, user.currentAddress, user.email, user.phone, user.refEmail);\r\n\t}\r\n    \r\n    // Org: Get a User Document\r\n\tfunction getUserDocument(address _userAddress, string memory docId ) public view registeredOrg(msg.sender) returns (string memory, DocType , State) {\r\n\t\t\r\n\t\trequire(kycRequests[_userAddress][msg.sender].state == State.Approved, \"BGV Request is not approved by customer yet.\");\r\n\t\t\r\n\t\t\r\n\t        Document memory doc = documents[_userAddress][docId];\r\n\r\n\t        if(doc.docType == DocType.Education && kycRequests[_userAddress][msg.sender].canViewEducation)\r\n    \t\t{\r\n    \t\t    return (doc.name, doc.docType, doc.state);\r\n    \t\t}\r\n    \t\telse if(doc.docType == DocType.Employment && kycRequests[_userAddress][msg.sender].canViewEmployer)\r\n    \t\t{\r\n    \t\t   return (doc.name, doc.docType, doc.state);\r\n    \t\t}\r\n    \t\telse if(doc.docType == DocType.AadharCard && kycRequests[_userAddress][msg.sender].canViewAadhar)\r\n    \t\t{\r\n    \t\t   return (doc.name, doc.docType, doc.state);\r\n    \t\t}\r\n    \t\telse if(doc.docType == DocType.PanCard && kycRequests[_userAddress][msg.sender].canViewPan)\r\n    \t\t{\r\n    \t\t     return (doc.name, doc.docType, doc.state);\r\n    \t\t}\r\n    \t\telse if(doc.docType == DocType.DrivingLicense && kycRequests[_userAddress][msg.sender].canViewDL)\r\n    \t\t{\r\n    \t\t    return (doc.name, doc.docType, doc.state);\r\n    \t\t}\r\n    \t\telse\r\n    \t\t{\r\n    \t\t    return (\"\", DocType.NotExist, State.NotExist);\r\n    \t\t}\r\n\t}\r\n\t\r\n\t// Customer: Get my Document\r\n\tfunction getMyDocument(string memory docId ) public view registeredCustomer(msg.sender) returns (string memory, DocType , State) {\r\n\t        Document memory doc = documents[msg.sender][docId];\r\n\t       return (doc.name, doc.docType, doc.state);\r\n\t}\r\n\t\r\n\t\r\n\tfunction getMyBasicDetails() public view registeredCustomer(msg.sender) returns (string memory, State, string memory, string memory, string memory, string memory, string memory) {\r\n\t\tUser memory user = users[msg.sender];\r\n\t    return (user.uname, user.state, user.permanentAddress, user.currentAddress, user.email, user.phone, user.refEmail);\r\n\t}\r\n\t\r\n\t //Customer: Send BGV Request to customer\r\n\tfunction InitiateVerificationRequest(address _oAddress) public registeredCustomer(msg.sender) returns (bool success) {\r\n    kycRequests[msg.sender][_oAddress] = BGVRequest(State.Approved, true, true, true , true, true, true, true, true);\r\n    //emit NewKYCRequest(_uAddress, msg.sender);\r\n    return true;\r\n    }\r\n\t\r\n\t//Customer: update Customer\r\n\tfunction updateCustomer(string memory _name, string memory _pAddress,string memory _cAddress, string memory _phone, string memory _refEmail) public registeredCustomer(msg.sender) returns (bool success) {\r\n\t\t//require(_userAddress == msg.sender,\"You can update your own details only.\");\r\n\t\tusers[msg.sender].uname = _name;\r\n\t\tusers[msg.sender].permanentAddress = _pAddress;\r\n\t\tusers[msg.sender].currentAddress = _cAddress;\r\n\t\tusers[msg.sender].phone = _phone;\r\n\t\tusers[msg.sender].refEmail = _refEmail;\r\n\t\tusers[msg.sender].state = State.Pending;\r\n\t\t\r\n\t\treturn true;\r\n\t}\r\n    \r\n    //User: Upload a document\r\n\tfunction addDocument(string memory _docName, address _IssuedBy, DocType _doctype, string memory _docHash) public registeredCustomer(msg.sender) returns (bool success){\r\n\t  // userDocuments[msg.sender] = _docHash;\r\n\t  //documentDetails[_docHash] = Document(_docName,_IssuedBy,_doctype, State.Pending);\r\n\t  documents[msg.sender][_docHash] = Document(_docName,_IssuedBy,_doctype, State.Pending);\r\n\t   return true;\r\n    }\r\n    \r\n   \r\n    \r\n    //User: Remove a document\r\n\tfunction removeDocument(string memory _docHash) public registeredCustomer(msg.sender) returns (bool success){\r\n\t    //delete documentDetails[_docHash];\r\n\t    delete documents[msg.sender][_docHash];\r\n\t    return true;\r\n    }\r\n    \r\n     //Customer: Approve KYC Request\r\n    function approveBgvRequest(address _oAddress, bool _canViewEducation, bool _canViewEmployer, bool _canViewAddress, bool _canViewReferences, bool _canViewContactDetails, bool _canViewAadhar, bool _canViewPan, bool _canViewDL) public registeredCustomer(msg.sender) returns (bool success){\r\n        require(kycRequests[msg.sender][_oAddress].state != State.NotExist, \"BGV Request does not exist.\");\r\n        kycRequests[msg.sender][_oAddress].state = State.Approved;\r\n        kycRequests[msg.sender][_oAddress].canViewEducation = _canViewEducation;\r\n        kycRequests[msg.sender][_oAddress].canViewEmployer = _canViewEmployer;\r\n        kycRequests[msg.sender][_oAddress].canViewAddress = _canViewAddress;\r\n        kycRequests[msg.sender][_oAddress].canViewReferences = _canViewReferences;\r\n        kycRequests[msg.sender][_oAddress].canViewContactDetails = _canViewContactDetails;\r\n        kycRequests[msg.sender][_oAddress].canViewAadhar = _canViewAadhar;\r\n        kycRequests[msg.sender][_oAddress].canViewPan = _canViewPan;\r\n        kycRequests[msg.sender][_oAddress].canViewDL = _canViewDL;\r\n        \r\n        //emit KYCRequestApproved(msg.sender, _oAddress);\r\n        return true;\r\n    }\r\n    \r\n    //Customer: Reject KYC Request\r\n    function rejectBgvRequest(address _oAddress) public registeredCustomer(msg.sender) returns (bool success){\r\n        require(kycRequests[msg.sender][_oAddress].state != State.NotExist, \"BGV Request does not exist.\");\r\n        kycRequests[msg.sender][_oAddress].state = State.Rejected;\r\n        //emit KYCRequestApproved(msg.sender, _oAddress);\r\n        return true;\r\n        \r\n    }\r\n    \r\n   \r\n}\r\n",
  "sourcePath": "C:/Users/maddy/documents/ml-projects-urcet/test1/SDV/contracts/SDV.sol",
  "compiler": {
    "name": "solc",
    "version": "0.5.16+commit.9c3226ce.Emscripten.clang"
  },
  "schemaVersion": "3.2.5",
  "updatedAt": "2021-07-02T08:32:04.377Z",
  "networkType": "ethereum",
  "devdoc": {
    "methods": {}
  },
  "userdoc": {
    "methods": {}
  }
}